:100000000C9459010C948A010C948A010C948A0175
:100010000C948A010C948A010C948A010C948A0134
:100020000C948A010C948A010C948A010C948A0124
:100030000C948A010C948A010C948A010C948A0114
:100040000C948A010C948A010C948A010C948A0104
:100050000C948A010C948A010C948A010C94FA0D78
:100060000C948A010C946E0E0C94440E0C948A012C
:100070000C948A010C948A010C948A010C948A01D4
:100080000C948A010C948A010C948A010C948A01C4
:100090000C948A010C948A010C948A010C948A01B4
:1000A0000C948A010C948A010C948A010C948A01A4
:1000B0000C948A010C948A010C948A010C948A0194
:1000C0000C948A010C948A010C948A010C948A0184
:1000D0000C948A010C948A010C948A010C948A0174
:1000E0000C948A010C94C9010C94C5010C94E10193
:1000F0000C94B0010C94B8010C94DC020C94AA018D
:100100000C94BC010C94DD0F0C9473020C94460209
:100110000C9496020C94D7010C94CF010C94D3014B
:100120000C94B4010C9482020C94E5010C94BF0170
:100130000C94EA010C94DD010C9429030C94EF015A
:100140000C94A4020C94EB010000803FCDCCCC3D7C
:100150006F12833A95BFD6337D1D9026B3CE010C26
:1001600000002100240027002A002D003000330069
:1001700001010000040107010A0100002000230022
:10018000260029002C002F0032000001000003018E
:100190000601090100002200250028002B002E0086
:1001A0003100340002010000050108010B010505C2
:1001B0000505070508080808020202020A0A0808DD
:1001C000040404040101010101010101030303030B
:1001D00003030303040707070C0C0C0C0C0C0C0C9A
:1001E0000202020206060606060606060B0B0B0BAB
:1001F0000B0B0B0B010210202008081020401020D0
:1002000040800201020108040201010204081020DA
:1002100040808040201008040201800402018040D8
:100220002010080402010804020101020408102041
:100230004080010204081020408000000A0B0209DF
:100240000C0D0E0807030401000000000000000070
:10025000000000000000000000000000000000009E
:10026000000000000000121110000000000000005B
:10027000000000000000000000000000000000007E
:10028000000020410000C84200401C4620BCBE4C7B
:10029000CA1B0E5AAEC59D74CDCCCC3D0AD7233CAB
:1002A00017B7D13877CC2B329595E6241FB14F0A7A
:1002B000DD0F11241FBECFEFD1E2DEBFCDBF00E0C6
:1002C0000CBF23E0A4EBB2E001C01D92A036B20740
:1002D000E1F712E0A0E0B2E0E2E5F4E200E00BBFFB
:1002E00002C007900D92A43BB107D9F711E0C9E510
:1002F000D1E000E006C021970109802FFE010E9495
:100300007E11C835D10780E00807A9F70E94A40E26
:100310000C9427120C9400008150823108F05AC0CE
:10032000E82FF0E08827E856FE4F8F4F0C947E119F
:10033000B801BC01AA01B001B401EA01BF01C501C5
:10034000C901CF01D301D701DD01E101EA01E501D6
:10035000EB01EF01809180008F77809380000895FA
:10036000809180008F7DF9CF80918000877FF5CFCD
:1003700084B58F7784BD089584B58F7DFBCF809140
:10038000B0008F778093B00008958091B0008F7D8A
:10039000F9CF809190008F7780939000089580919D
:1003A00090008F7DF9CF80919000877FF5CF80916D
:1003B000A0008F778093A00008958091A0008F7D8A
:1003C000F9CF8091A000877FF5CF809120018F77B2
:1003D000809320010895809120018F7DF9CF809135
:1003E0002001877FF5CF1F93CF93DF93282F30E035
:1003F000F901E65CFD4F8491F901EC50FE4FD49178
:10040000F901E255FE4FC491CC23A9F0162F8111BA
:100410000E948C01EC2FF0E0EE0FFF1FEC56FE4F18
:10042000A591B4918FB7F894EC91111108C0D095B3
:10043000DE23DC938FBFDF91CF911F910895DE2BD8
:10044000F8CF3FB7F8948091BF029091C002A0917D
:10045000C102B091C20226B5A89B05C02F3F19F07A
:100460000196A11DB11D3FBFBA2FA92F982F882734
:10047000BC01CD01620F711D811D911D42E0660F0F
:10048000771F881F991F4A95D1F70895AF92BF92A1
:10049000CF92DF92EF92FF920F931F93CF93DF9350
:1004A0006C017B018B01040F151FEB015E01AE187F
:1004B000BF08C017D10759F06991D601ED91FC91A1
:1004C0000190F081E02DC6011995892B79F7C501BE
:1004D000DF91CF911F910F91FF90EF90DF90CF9020
:1004E000BF90AF900895FC01538D448D252F30E0CF
:1004F000842F90E0821B930B541710F0CF96089531
:1005000001970895FC01918D828D981761F0A28D5D
:10051000AE0FBF2FB11D5D968C91928D9F5F9F7323
:10052000928F90E008958FEF9FEF0895FC01918DD9
:10053000828D981731F0828DE80FF11D858D90E046
:1005400008958FEF9FEF0895FC01918D228D892FE3
:1005500090E0805C9F4F821B91098F7399270895CB
:1005600083EC92E00E94A40221E0892B09F420E0B0
:10057000822F0895FC01A48DA80FB92FB11DA35A95
:10058000BF4F2C91848D90E001968F739927848FB3
:10059000A689B7892C93A089B1898C9183708064D6
:1005A0008C93938D848D981306C00288F389E02D77
:1005B00080818F7D80830895EF92FF920F931F9328
:1005C000CF93DF93EC0181E0888F9B8D8C8D981306
:1005D0001AC0E889F989808185FF15C09FB7F89412
:1005E000EE89FF896083E889F9898081837080645E
:1005F00080839FBF81E090E0DF91CF911F910F91A9
:10060000FF90EF900895F62E0B8D10E00F5F1F4FB7
:100610000F731127E02E8C8D8E110CC00FB607FCC6
:10062000FACFE889F989808185FFF5CFCE010E9454
:10063000BA02F1CFEB8DEC0FFD2FF11DE35AFF4F06
:10064000F0829FB7F8940B8FEA89FB8980818062E2
:10065000CFCFCF93DF93EC01888D8823B9F0AA899F
:10066000BB89E889F9898C9185FD03C0808186FD6D
:100670000DC00FB607FCF7CF8C9185FFF2CF8081BC
:1006800085FFEDCFCE010E94BA02E9CFDF91CF9175
:10069000089581E08093B90208950E94B0028823F2
:1006A00019F081E08093B90280E090E0892B49F055
:1006B00080E090E0892B29F00E94000081110E94C7
:1006C000000080E090E0892B49F080E090E0892BE9
:1006D00029F00E94000081110E94000080E090E05B
:1006E000892B49F080E090E0892B29F00E940000DE
:1006F00081110C9400000895CF93DF93EC01888161
:100700009981DC01ED91FC910190F081E02D19952A
:100710002A813B81820F931F9B838A83DF91CF9134
:100720000895982F80336CF08A3324F08F3524F0AD
:100730008B3724F481E0089581341CF081E09B35EF
:100740000CF080E008950895CF93DF93EC01888149
:100750009981DC01ED91FC910280F381E02D1995E6
:100760002A813B81820F931F9B838A83DF91CF91E4
:1007700008958F929F92AF92BF92CF92DF92EF92A5
:10078000FF920F931F93CF93DF93CDB7DEB766979A
:100790000FB6F894DEBF0FBECDBF6C018E01095EAF
:1007A0001F4F78018AE0882E912CA12CB12CCB010F
:1007B000BA01A50194010E945C11942F852F605D00
:1007C000F80162938F01A901692F782F4115510516
:1007D0006105710561F7A7014E1B5F0BBF01C601E3
:1007E0000E94A40366960FB6F894DEBF0FBECDBF7D
:1007F000DF91CF911F910F91FF90EF90DF90CF90FD
:10080000BF90AF909F908F9008950F931F93CF93B9
:10081000DF93EC018C85811140C009851A852FB7C3
:10082000F8948091BB029091BC02A091BD02B0915E
:10083000BE022FBFF80180879187A287B387D801B6
:10084000ED91FC910284F385E02DC801199597FF85
:100850002AC02FB7F8948091BB029091BC02A0915E
:10086000BD02B091BE022FBFF8014085518562855F
:100870007385841B950BA60BB70B4481558166814C
:10088000778184179507A607B707C8F28FEF9FEF08
:1008900097FD80E08B8781E08C878B85DF91CF91FE
:1008A0001F910F9108959927F3CF1F93CF93DF9353
:1008B000EC01162F0E940504811306C01C8681E0FE
:1008C000DF91CF911F91089580E0FACF0F931F938E
:1008D000CF93DF938C01EB018991882369F0C801E4
:1008E0000E940504882379F0FE01319790819813C6
:1008F0000DC0F8011486F0CF90E080E0DF91CF9139
:100900001F910F91089582E090E0F8CF83E090E08E
:10091000F5CFCF93DF93EC01CE010E9405048B301D
:100920004CF489305CF4882359F081E0888790E0AA
:1009300080E00BC08D3011F08032B9F71C86ECCF0F
:100940008885811105C081E090E0DF91CF91089505
:1009500082E090E0FACF0895FC0124813581A9015D
:100960004F5F5F4F868197814817590748F482810E
:10097000938155834483FC01E20FF31F6083089544
:100980000190F081E02D81E0808708959F92AF92E1
:10099000BF92CF92DF92EF92FF920F931F93CF936C
:1009A000DF9300D01F921F92CDB7DEB78C010E945B
:1009B0000504D82ED8011C961C92F12CE12C60EF76
:1009C000C62EC8010E940504F8011486D81609F441
:1009D000B4C0811113C082E090E00F900F900F908F
:1009E0000F900F90DF91CF911F910F91FF90EF909B
:1009F000DF90CF90BF90AF909F9008958C3509F015
:100A00009AC0C8010E940504882329F3EEE1F2E0B0
:100A1000853709F084C0D8011C961C9254E0952EAD
:100A2000B12CA12CC8010E9405048823A1F28134B5
:100A300034F48053803130F083E090E0CECF8F7D6E
:100A40008753F8CF44E0AA0CBB1C4A95E1F7A82ACB
:100A5000F80114869A949110E5CFC501985D81152F
:100A6000944020F47501F3E0FF22ABCFC5019C5DFB
:100A700081159440A8F483E0B822B701762F662749
:100A8000770F770F6A297B2990E080E00196603824
:100A900071058105910540F4C8010E94AC0491CF15
:100AA000B50190E080E0F3CF1982262F2F732068E4
:100AB0002A8326E096958795779567952A95D1F7AD
:100AC0006032710580F4606C6B835E01A4E0AA0E55
:100AD000B11CD5016E915D01662309F472CFC80186
:100AE0000E94AC04F6CF262F2F7320682B8386E05C
:100AF000769567958A95E1F76031710538F4606EF7
:100B00006C835E01B5E0AB0EB11CE3CF60686C8313
:100B1000CD825E01E6E0AE0EB11CDBCF3296908155
:100B2000992309F489CF8913F9CF8181882309F4A6
:100B300083CFF8011486682FAFCF0190F081E02DAC
:100B40008085882319F084E090E047CF90E080E032
:100B500044CFCF93DF93DC01EB01EC81FD818A81EF
:100B60009B810896E817F90740F481E08887F0E058
:100B7000E0E0CF01DF91CF9108953897FD83EC83BA
:100B80003097B9F31296CD91DC911397209791F09D
:100B9000CF018C1B9D0B23E0959587952A95E1F756
:100BA0008D831396FC93EE9312971582148217820D
:100BB0001682DFCF1196FC93EE93F3CFEF92FF9264
:100BC0000F931F93CF93DF937C01DC0112962D913D
:100BD0003C911397ED91FC91AB01420F531FEF0134
:100BE000C60FD71FC217D307A0F4888181110BC08D
:100BF000E901CF014C175D0751F00991DC011D910E
:100C0000CD010117B9F381918111FDCFE8CF309764
:100C100051F4620F731FCB010196F7019383828316
:100C2000DB011C92F901CF01DF91CF911F910F9150
:100C3000FF90EF900895FC012581222339F0F8E020
:100C40002F0290011124820F931F089590E080E0FD
:100C50000895FC0101900020E9F73197AF01481B8E
:100C6000590BBC0183EC92E00C944602CF93DF93C6
:100C70006115710579F1EB01DC018D919C91009773
:100C800059F1DC011696ED91FC91DE010D900020EA
:100C9000E9F71197AD014C1B5D0B30E020E0309778
:100CA00049F0DF010D900020E9F79D012150310945
:100CB0002E1B3F0B2417350751F4DE012C0F3D1F6F
:100CC0002A173B0749F05D9141915417C9F30E94DF
:100CD0001B06D5CF90E080E0DF91CF9108954F9231
:100CE0005F926F927F928F929F92AF92BF92CF92BC
:100CF000DF92EF92FF920F931F93CF93DF93EC015C
:100D00008B01D42E0E9489047C01892B09F053C0E9
:100D1000CE010E940504863609F462C194F587323B
:100D200029F08B35D1F1823209F063C1E881F98174
:100D3000828193819B838A838481958122813381FF
:100D4000821B930B9F838E831D821C82892B11F43F
:100D500081E08087CE010E94C6047C01892B59F571
:100D6000CC80DD80B601888199810E94DE05F80182
:100D7000248120782560248391838083D382C2825A
:100D80001AC0843709F410C18B3709F45AC08E3663
:100D900009F02FC16AE372E010C1F8018481807804
:100DA000806484831182108213821282D11015C054
:100DB000C5E0EC2EF12CC701DF91CF911F910F916F
:100DC000FF90EF90DF90CF90BF90AF909F908F906B
:100DD0007F906F905F904F9008951C86CE010E9487
:100DE0008904009709F06EC26DE5CE010E9455049A
:100DF0008111E1CFDA946D857E85C8010E94A90535
:100E0000009709F46FC04D2DBC01CE010E946F0602
:100E1000009709F057C2CE010E948904009709F09B
:100E200051C26DE5CE010E9455048111C4CF6CE220
:100E3000CE010E9455048111DECFB3E0EB2EF12CE0
:100E4000BACFF80184818078806284831182108215
:100E500013821282DD2009F4ABCF1C86CE010E94E2
:100E60008904009709F02EC26DE7CE010E94550457
:100E70008111A1CFCC24C394DA94E881F9818281D5
:100E800093819B838A838481958122813381821B14
:100E9000930B9F838E831D821C82892B09F4C0864D
:100EA000CE010E940504873209F18232F9F0CE01A9
:100EB0000E940504F82E0E949103882309F4BDCFF7
:100EC0001C866F2DCE010E94AC04CE010E94050449
:100ED000F82E0E9491038111F3CFE881F98180857A
:100EE000882359F084E0E82EF12C65CFCE010E94D2
:100EF000C6047C01892B09F05ECFCE010E948904D3
:100F00007C01892B09F057CF6AE3CE010E9455047A
:100F1000882309F492CFEA81FB818C819D81E80FBF
:100F2000F91F1082EC80FD806A817B81C8010E94DC
:100F30003606BC01892BA1F4B701888199810E94F2
:100F4000DE057C016D857E85C8010E94A905FC0136
:100F5000892B41F2848180688483F782E682BF0115
:100F60004D2DCE010E946F067C01892B09F023CF05
:100F7000CE010E9489047C01892B09F01CCF6DE70A
:100F8000CE010E945504811116CF6CE2CE010E9461
:100F90005504882309F451CFCE010E9489047C01B5
:100FA000892B09F46ACF07CFF801848180788660A5
:100FB000848381E080836FE272E0CE01DF91CF9184
:100FC0001F910F91FF90EF90DF90CF90BF90AF9067
:100FD0009F908F907F906F905F904F900C946604DD
:100FE000F8018481807886608483108264E372E0F3
:100FF000E4CFCE010E9405045E01FFE0AF0EB11CFC
:10100000D12C9A2CCB2C803374F08A3374F42FE3D8
:10101000D21699F01C86D394F50181935F01CE011D
:101020000E940504F0CF8B3291F393ED980F92302C
:1010300070F3982F9F7D953451F3FE01ED0DF11D56
:1010400017868F858B32E1F16096DD24D3948D3243
:1010500019F0C92DDC2DD12C888190ED980F9A3094
:1010600018F08E3209F0E9CE60E070E0CB01FE01AD
:101070002191A0ED8A2E820E39E0381518F16A39D7
:1010800049E97407840749E1940730F5AAE0B0E024
:101090009B01AC010E942E11912CB12CA12C24019A
:1010A0003501409450946094709446165706680633
:1010B000790690F0680D791D8A1D9B1DEF01D7CF31
:1010C0006096C9CF211108C0DD2069F1613071053A
:1010D000810550E89507A0F0C12C5AE0852E912C8F
:1010E000A12CB12C61157105F0E88F07910528F14D
:1010F000A50194010E945C11CA01B901C394F2CF09
:10110000F801248120782A6024839B01AC01882780
:101110009927DC01821B930BA40BB50B8083918371
:10112000A283B38348CEF8012481207828602483E9
:1011300060837183828393833ECEDE01299130EDFB
:10114000320F3A3010F4C394F8CF2E32D9F4FD01A7
:101150003196DF013196CC91C053CA3098F46C3C83
:101160002CEC72072CE08207910598F7AAE0B0E01A
:101170009B01AC010E942E116C0F711D811D911DF0
:10118000CA94E7CF2C912F7DD0E0C0E0253409F040
:1011900055C011962C9111972D32C9F51296BB248A
:1011A000B394FD01D0E0C0E02C2D0C2C000C330BCF
:1011B0004AE0942EDF01A19040ED4A0D4A30C8F577
:1011C0009C9EA0019D9E500D1124CA2DAA0CDD0BE2
:1011D000E097C40FD51FAE01420F531F4732510590
:1011E0004CF3F8018481BB20C9F040E050E060E09E
:1011F00070E8D11003C040E050E0BA0180788C6004
:10120000F80184834083518362837383D4CD2B326E
:1012100019F01196B12CC5CF1296FCCF40E050E0EA
:1012200060E87FEFD110EACF40E050E060E87FE770
:10123000E5CFBB2019F0D195C195D1092C91211191
:10124000FCCDCC0DD11DC7FCDA950E940F101C16E9
:101250001D0604F5C12CC0FF0CC024E0C29EF001A5
:101260001124E058FD4F25913591459154910E94EC
:101270007010D595C795C394209769F7D1109058F1
:10128000F801248120782C60248360837183828319
:10129000938391CDD195C195D109C12C209771F33C
:1012A000C0FF0CC044E0C49EF0011124E856FD4F7D
:1012B00025913591459154910E947010D595C7950F
:1012C000C394ECCF7C0177CDFC01248125FD0C94E7
:1012D000360690E080E008950F931F93CF93DF933D
:1012E000CDB7DEB7C156D2400FB6F894DEBF0FBE01
:1012F000CDBFCE010F969A8389839C838B8383E035
:1013000092E08C0F9D1F9E838D8398878F83198613
:101310001E8682509240C65ADD4F99838883CA55F3
:10132000D24028E0FE01E65AFD4FDE01AE5ABD4F25
:1013300001900D922A95E1F728E0FE01EE5AFD4F4B
:10134000DE01AD5FBD4F01900D922A95E1F7C55FBB
:10135000DD4F1882CB50D24023EC32E0C45FDD4F2A
:1013600039832883CC50D240C15FDD4F1882CF50E3
:10137000D240C05FDD4F99838883C051D2404AE09C
:10138000BE01665F7F4F8E5F9D4F0E946F068C018E
:10139000892B29F5C25FDD4F8881CE50D24088234A
:1013A000D9F08E851092B90203E010E083FD19C0D8
:1013B0006FE372E0CE010A960E946409009719F566
:1013C000CF59DD4F0FB6F894DEBF0FBECDBFDF9112
:1013D000CF911F910F9108951092B902E9CF109209
:1013E000B90283E492E00E942906000F111FF80160
:1013F000E050FE4F808191810097A1F48AE592E050
:101400000E942906DDCFFC0184818F77C9F26FE34A
:1014100072E0CE010A960E946409FC01892B29F42E
:1014200010E020C00E942906E9CF94819F77983070
:10143000F1F030F49923A1F3963099F011E012C045
:101440009A30A9F09C30D1F711E020E030E0A901FA
:1014500060817181828193810E940A10811102C092
:10146000DFCF1081612F87E00E94F301A9CF11E047
:1014700080819181A281B381892B8A2B8B2B91F75B
:10148000CFCFEF92FF920F931F93CF93DF93EC0197
:101490008C81982F9F7739F4807880628C831982B1
:1014A00018821B821A828C8185FF1DC0611571050F
:1014B000D1F07A018B01CE010E943606009761F4CB
:1014C000B701CE010E94A905009731F0FC012481EB
:1014D0002F77248317830683DF91CF911F910F917C
:1014E000FF90EF90089590E080E0F6CFFB0101902F
:1014F0000020E9F73197AF01461B570B0C94A4036A
:101500001F93CF93DF93EEE1F2E01281112379F084
:10151000329621816213F9CFEC016CE50E947C03C5
:10152000612FCE01DF91CF911F910C947C0361114B
:10153000F9CF6DE572E0DF91CF911F910C94760A9F
:101540002F923F924F925F926F927F928F929F92D3
:10155000AF92BF92CF92DF92EF92FF920F931F93C1
:10156000CF93DF93CDB7DEB76C970FB6F894DEBF9D
:101570000FBECDBF8C011B01DC0114968C9114971A
:101580008F77863009F492C268F58230A0F1129606
:10159000ED90FC901397CC901196DC90843008F07D
:1015A00056C2A701B601C1010E94A403F1018281C4
:1015B00093816C960FB6F894DEBF0FBECDBFDF915E
:1015C000CF911F910F91FF90EF90DF90CF90BF9040
:1015D000AF909F908F907F906F905F904F903F90D3
:1015E0002F9008958C3069F160F4883009F459C265
:1015F0008A3009F43FC26AE372E0C1010E94760AB0
:10160000E5C1803209F4ECC18034A9F76BE5C10172
:101610000E947C03F801008111810115110509F474
:10162000DAC1B101C8010E94A00AC8010E941B06CC
:101630008C01892B09F4CFC16CE2C1010E947C03AB
:10164000ECCFF801C080D180E280F380A701960141
:10165000C701B6010E940A108111CDCF20E030E011
:10166000A901C701B6010E940A10882379F0A701D9
:101670009601C701B6010E9487119B01AC01C70109
:10168000B6010E940A10882309F4B5CF20E030E0AB
:10169000A901C701B6010E940A1087FF08C06DE2C8
:1016A000C1010E947C03F7FAF094F7F8F09420E867
:1016B00036E948E15BE4C701B6010E94221287FDCA
:1016C00081C074E1A72EB12C00E210E0188E1F8AB1
:1016D000F501E058FD4F2591359145915491C70191
:1016E000B6010E94221287FD13C0F501E856FD4F96
:1016F0002591359145915491C701B6010E94701012
:101700006B017C012F89388D200F311F388F2F8B73
:101710001595079534E0A31AB1088CEFA8168FEF42
:10172000B806B1F655245A9420E030E0A901C7016B
:10173000B6010E94221218160CF04BC02CEA35ECB0
:1017400047E257E3C701B6010E940A1018160CF4CD
:1017500040C0A52DB4E0AB02C0011124B12CA12CD6
:10176000FC01E85BFE4F3F019C0120583D4F4901C1
:101770003FEF531671F1F301EA0DFB1D25913591F1
:1017800045915491C701B6010E940A1087FF13C00A
:10179000F401EA0DFB1D2591359145915491C70146
:1017A000B6010E9470106B017C018F89988D801B9F
:1017B000910B988F8F8B159507955A9494E0A91AE1
:1017C000B108D6CF00E210E055E0552E188E1F8AE2
:1017D000ABCFC701B6010E94F3114B015C012B0195
:1017E0003C0106E080E492E4AFE0B0E0898F9A8F9C
:1017F000AB8FBC8F102F01509AE049165104610441
:101800007104C8F0698D7A8D8B8D9C8D2AE030E053
:1018100040E050E00E945C11298F3A8F4B8F5C8F23
:10182000C301B2012AE030E040E050E00E945C11C8
:1018300029013A01DFCFC501B4010E940F109B01BD
:10184000AC01C701B6010E9486116B017C01698D54
:101850007A8D8B8D9C8D0E940F109B01AC01C7016E
:10186000B6010E9470102B013C010E94F3116B0124
:101870007C010E940F109B01AC01C301B2010E94C8
:1018800086119B01AC010E9487110E94F311C60EC4
:10189000D71EE81EF91E898D9A8DAB8DBC8DC8169A
:1018A000D906EA06FB06D8F09FEF891A990AA90A19
:1018B000B90AAF89B88DAB2B39F1BAE08B16910418
:1018C000A104B10408F1EF89F88D3196F88FEF8B00
:1018D000C12CD12C7601812C912C540183942AE0C7
:1018E000422E512C612C712CC701B601A30192012B
:1018F0000E945C11672B682B692B51F4111644F47C
:1019000069017A011150F0CFC12CD12C7601E7CFBB
:10191000B501A401C1010E94B903112371F14E0167
:10192000F1E18F0E911C012F54019AE0492E512CA8
:10193000612C712C015068F0C701B601A30192011E
:101940000E945C11605DD4016E934D0169017A01C2
:10195000F1CF812F90E0BC0160957095F501E81BF7
:10196000F90B31978EE2808344275527461B570B8E
:101970006A0D7B1DC1010E94A403EF89F88DEF2B36
:1019800029F165E6C1010E947C030F89188D17FFBC
:1019900007C06DE2C1010E947C03119501951109F8
:1019A000FE0177969F018AE0E82EF12CC801B7016D
:1019B0000E944811805D82938B01672BB9F7A901C2
:1019C0004E1B5F0BBF01C1010E94A403D1011296FF
:1019D0008D919C91EECD6DE5C1010E947C03F6CF07
:1019E0006BE7C1010E947C03F801008111810115A0
:1019F000110559F1D8011696CC9016971796DC90E0
:101A000062E2C1010E947C037601F70161917F01CE
:101A1000662321F0C1010E94800AF7CF62E2C10172
:101A20000E947C036AE3C1010E947C03B101C801EA
:101A30000E94A00AC8010E941B068C01892B29F074
:101A40006CE2C1010E947C03D2CF6DE7C5CF62E298
:101A5000C1010E947C038601E00EF11EE016F10632
:101A600039F0F80161918F01C1010E94800AF6CF1F
:101A700062E2B2CFCD90DD90ED90FC90B701A6016F
:101A8000F7FE0BC06DE2C1010E947C03442755277D
:101A9000BA014C195D096E097F09C1010E94B903A1
:101AA00085CD4D915D916D917C91F7CF8C916FE2D9
:101AB00072E0811102C064E372E0C1010E94760A03
:101AC00075CDCF92DF92EF92FF920F931F93CF933A
:101AD000DF93CDB7DEB7C650D2400FB6F894DEBF65
:101AE0000FBECDBFCE010F969A8389839C838B83D3
:101AF0008E010D5F1D4F1E830D8318870F8319867E
:101B00001E868FB7F894C090BB02D090BC02E090C4
:101B1000BD02F090BE028FBFAE014F5F5F4F64E623
:101B200072E0CE010A960E94410AFC01892B41F025
:101B30009481907898609483C082D182E282F3820B
:101B4000AE014F5F5F4F69E672E0CE010A960E94D8
:101B5000410AFC01892B81F02091B7023091B80233
:101B6000948190789A609483C901330FAA0BBB0BC0
:101B700080839183A283B383AE014F5F5F4F60E7A1
:101B800072E0CE010A960E94410AFC01892B81F085
:101B90002091B5023091B602948190789A60948336
:101BA000C901330FAA0BBB0B80839183A283B3833C
:101BB00083EC92E0F8019183808313821282B80152
:101BC000CE010A960E94A00A8AE592E00E942906A8
:101BD0001092B402CA5FDD4F0FB6F894DEBF0FBE9D
:101BE000CDBFDF91CF911F910F91FF90EF90DF90CC
:101BF000CF9008951F920F920FB60F9211242F933A
:101C00003F938F939F93AF93BF938091BB0290912B
:101C1000BC02A091BD02B091BE023091BA0223E095
:101C2000230F2D3758F50196A11DB11D2093BA023F
:101C30008093BB029093BC02A093BD02B093BE02FE
:101C40008091BF029091C002A091C102B091C202E6
:101C50000196A11DB11D8093BF029093C002A09375
:101C6000C102B093C202BF91AF919F918F913F91FA
:101C70002F910F900FBE0F901F90189526E8230FFD
:101C80000296A11DB11DD2CF1F920F920FB60F92D7
:101C900011240BB60F922F933F934F935F936F9343
:101CA0007F938F939F93AF93BF93EF93FF9383ECB7
:101CB00092E00E94BA02FF91EF91BF91AF919F9184
:101CC0008F917F916F915F914F913F912F910F90E5
:101CD0000BBE0F900FBE0F901F9018951F920F9282
:101CE0000FB60F9211240BB60F922F938F939F93E1
:101CF000EF93FF93E091D302F091D4028081E091C1
:101D0000D902F091DA0282FD1DC090818091DC023F
:101D10008F5F8F732091DD02821741F0E091DC022A
:101D2000F0E0ED53FD4F958F8093DC02FF91EF9132
:101D30009F918F912F910F900BBE0F900FBE0F9020
:101D40001F9018958081F2CF789484B5826084BD0D
:101D500084B5816084BD85B5826085BD85B58160AF
:101D600085BD80916E00816080936E00109281002D
:101D700080918100826080938100809181008160E8
:101D800080938100809180008160809380008091A9
:101D9000B10084608093B1008091B0008160809335
:101DA000B0008091910082608093910080919100B9
:101DB0008160809391008091900081608093900079
:101DC0008091A10082608093A1008091A100816038
:101DD0008093A1008091A00081608093A0008091F9
:101DE0002101826080932101809121018160809393
:101DF00021018091200181608093200180917A00EF
:101E0000846080937A0080917A00826080937A0067
:101E100080917A00816080937A0080917A00806856
:101E200080937A001092C100E091D302F091D40225
:101E300082E08083E091CF02F091D0021082E091A5
:101E4000D102F091D2028FEC80831092DB02E091FC
:101E5000D702F091D80286E08083E091D502F0911C
:101E6000D602808180618083E091D502F091D60214
:101E7000808188608083E091D502F091D6028081D4
:101E800080688083E091D502F091D60280818F7DB9
:101E90008083EBEFF1E02491E5EBF1E0849188237E
:101EA00099F090E0880F991FFC01E05AFE4FA59130
:101EB000B491FC01EC56FE4F859194918FB7F89444
:101EC000EC91E22BEC938FBF60E087E00E94F3017E
:101ED00020E4C22ECDE3D2E007EF11E031EBE32E98
:101EE00031E0F32E8091B902882321F00E946C0921
:101EF0000E94610D80917B00877F80937B00C09260
:101F00007C0080917A00806480937A0080917A00CE
:101F100086FDFCCF909178008091790089279827E1
:101F200089279093B8028093B702FE018491F8014B
:101F3000B490F701D490DD2009F43CC081110E94D7
:101F40008C01ED2DF0E0EE0FFF1FE658FE4FA5913E
:101F5000B4918C91B82291E080E009F490E09093E4
:101F6000B5028093B6020E9421022B013C018AE057
:101F7000882E912CA12CB12C0E9421026419750984
:101F800086099709683E734081059105A8F3F1E041
:101F90008F1A9108A108B10828EE420E23E0521EC4
:101FA000611C711C81149104A104B10429F70E94E1
:101FB0004D0398CF90E080E0D2CFE3ECF2E01382C3
:101FC000128288EE93E0A0E0B0E084839583A6833C
:101FD000B78380E192E09183808385EC90E09587E0
:101FE000848784EC90E09787868780EC90E0918BE3
:101FF000808B81EC90E0938B828B82EC90E0958BD0
:10200000848B86EC90E0978B868B118E128E138ECC
:10201000148E08950E944C1008F481E00895E8940D
:1020200009C097FB3EF490958095709561957F4F20
:102030008F4F9F4F9923A9F0F92F96E9BB279395CE
:10204000F695879577956795B795F111F8CFFAF4DE
:10205000BB0F11F460FF1BC06F5F7F4F8F4F9F4F0F
:1020600016C0882311F096E911C0772321F09EE86D
:10207000872F762F05C0662371F096E8862F70E0D3
:1020800060E02AF09A95660F771F881FDAF7880FAD
:102090009695879597F90895990F0008550FAA0B03
:1020A000E0E8FEEF16161706E807F907C0F012166B
:1020B0001306E407F50798F0621B730B840B950B6E
:1020C00039F40A2661F0232B242B252B21F40895C3
:1020D0000A2609F4A140A6958FEF811D811D089560
:1020E0000E9483100C94F4100E94E61038F00E94B5
:1020F000ED1020F0952311F00C94DD100C94E310FA
:1021000011240C9428110E94051170F3959FC1F3BE
:10211000950F50E0551F629FF001729FBB27F00D95
:10212000B11D639FAA27F00DB11DAA1F649F6627EA
:10213000B00DA11D661F829F2227B00DA11D621F39
:10214000739FB00DA11D621F839FA00D611D221FF3
:10215000749F3327A00D611D231F849F600D211DD7
:10216000822F762F6A2F11249F5750409AF0F1F05A
:1021700088234AF0EE0FFF1FBB1F661F771F881FC3
:1021800091505040A9F79E3F510580F00C94DD100E
:102190000C9428115F3FE4F3983ED4F3869577952D
:1021A0006795B795F795E7959F5FC1F7FE2B880F69
:1021B000911D9695879597F9089597F99F6780E8FF
:1021C00070E060E008959FEF80EC089500240A9489
:1021D0001616170618060906089500240A94121602
:1021E0001306140605060895092E0394000C11F435
:1021F000882352F0BB0F40F4BF2B11F460FF04C0E2
:102200006F5F7F4F8F4F9F4F089557FD9058440F3A
:10221000551F59F05F3F71F04795880F97FB991F45
:1022200061F09F3F79F08795089512161306140602
:10223000551FF2CF4695F1DF08C01616170618068F
:10224000991FF1CF86957105610508940895E8946A
:10225000BB2766277727CB0197F908950E9439118C
:10226000A59F900DB49F900DA49F800D911D1124EA
:102270000895A29FB001B39FC001A39F700D811D5F
:102280001124911DB29F700D811D1124911D08957F
:10229000AA1BBB1B51E107C0AA1FBB1FA617B7078C
:1022A00010F0A61BB70B881F991F5A95A9F78095A8
:1022B0009095BC01CD010895A1E21A2EAA1BBB1B6B
:1022C000FD010DC0AA1FBB1FEE1FFF1FA217B30702
:1022D000E407F50720F0A21BB30BE40BF50B661F18
:1022E000771F881F991F1A9469F7609570958095DC
:1022F00090959B01AC01BD01CF010895EE0FFF1F2A
:10230000881F8BBF0790F691E02D19945058BB277A
:10231000AA270E949E110C94F4100E94E61038F037
:102320000E94ED1020F039F49F3F19F426F40C942C
:10233000E3100EF4E095E7FB0C94DD10E92F0E940A
:10234000051158F3BA17620773078407950720F041
:1023500079F4A6F50C9427110EF4E0950B2EBA2F04
:10236000A02D0B01B90190010C01CA01A00111249B
:10237000FF27591B99F0593F50F4503E68F11A1647
:10238000F040A22F232F342F4427585FF3CF4695D8
:1023900037952795A795F0405395C9F77EF41F16FA
:1023A000BA0B620B730B840BBAF09150A1F0FF0FC4
:1023B000BB1F661F771F881FC2F70EC0BA0F621FB0
:1023C000731F841F48F4879577956795B795F795A0
:1023D0009E3F08F0B0CF9395880F08F09927EE0F35
:1023E0009795879508950E940D1188F09F5798F052
:1023F000B92F9927B751B0F0E1F0660F771F881F0A
:10240000991F1AF0BA95C9F714C0B13091F00E9423
:102410002711B1E008950C942711672F782F882792
:10242000B85F39F0B93FCCF3869577956795B3954A
:10243000D9F73EF490958095709561957F4F8F4FB9
:102440009F4F08950E944C1008F48FEF0895F89460
:02245000FFCFBC
:1024520077027A0285029502A202AB020000000016
:10246200DC02460273022903A402820296022F2F83
:1024720022225C5C6208660C6E0A720D740900749A
:102482007275650066616C7365006E756C6C006CCC
:10249200656400646573657269616C697A6528298F
:1024A200206661696C65643A20000D0A005C753033
:1024B2003030300074696D6500616E616C6F670069
:1024C200626F75746F6E004F6B00456D7074794961
:1024D2006E70757400496E636F6D706C65746549DA
:1024E2006E70757400496E76616C6964496E7075C0
:1024F20074004E6F4D656D6F727900546F6F446555
:042502006570000000
:00000001FF
